:020000040000FA
:0400000080312528FE
:100008007E1480310B1F09280A2823282E00991CEA
:100018000E280F281A288F1C122813281A282000A7
:100028003E088A003D080A0080312328191C1D2833
:100038001E2823280F1C21282228232813287E1055
:1000480009008031272820308400003085001F30C7
:100058008331AA2380317E10200082319C2A83318B
:10006800B6238031003A03193A283B286B284828E0
:100078008331E423803187288331DF238031872847
:100088008331D5238031872820002F08FA007A0889
:10009800F9000630203E86008701413F8A00403F34
:1000A8000A008031FB00FC017C08003A03195D2836
:1000B80044287B08013A03194428033A03193C28C9
:1000C800013A03194028073A031944284428200014
:1000D8003C101730203E86008701403F8400850190
:1000E800810A00088331EE23803101302000B802F4
:1000F8000030B93B38083904031D83288428862832
:100108000630872803300800843114248031FA002F
:1001180020003708860087017A0881000130FA003C
:100128007A08B7070130B8020030B93B38083904FB
:1001380003199F28A028A5288331F723803105308B
:10014800CD28BC15AF288331C6238031CD28833113
:10015800CB238031CD282C08FA007A08F900210831
:100168008A0020080A008031FB00FC017C08003A64
:100178000319BF28AB287B08013A0319AB28033AB7
:100188000319A728013A0319A728073A0319AB2826
:10019800AB2808002000C500C601C60A3C19D528AE
:1001A800D62811294508C4004408B600BC103C15DF
:1001B8003C100E30C4004408BA00F430B4000130DA
:1001C800B500BC152230A0000430A100AC012230DB
:1001D800A2000430A300AD012230A4000430A50021
:1001E800AE012230A6000430A700AF012030A800DD
:1001F8000430A900B001F330C2000330C3008331DA
:10020800B023803184310B24803183314F238031F6
:100218008331FF2380312000C601460808002000F2
:10022800960197019801FD309100FF309200FF3050
:100238009300E7303E00CE00FF30C300FD30B80029
:10024800E501C401B901CF01BA01C501D001FF30F0
:10025800BB00FF30C600FF30D100FF30BC00FF30CC
:10026800C700FF30D2000830E80013303D00C50059
:1002780014303E00A3001530A40014303D00C60021
:1002880008002000BC1555298331DA2381317329F0
:10029800843111248131033073298331D52381318D
:1002A80073292C08FA007A08F90021088A00200826
:1002B8000A008131FB00FC017C08003A031965291A
:1002C80051297B08013A03195129033A031948298E
:1002D800013A03194829073A03194C2951290800FA
:1002E8002000CD0020004D088031CE208131003A19
:1002F80003197F2980297629CE302000C7000230D3
:10030800C8004B30CC004C08C900833133238131FD
:1003180000302000C700C800C90183314123813162
:100328008331BC238131823180228131013A031922
:100338009E299F299729080020003C100230FA00C6
:100348007A08BB00AF298331DA238131CB29833185
:10035800D5238131CB292E08FA007A08F900043018
:10036800203E86008701413F8A00403F0A008131D4
:10037800FB00FC017C08003A0319C329AB297B0860
:10038800023A0319A729013A0319A729AB2908003A
:1003980084310E24813120003C1CD329D429E12941
:1003A8008331B6238131003A0319DB29DC29E1299D
:1003B8000F302000BF003F08BA0020003A08BF00F5
:1003C800C001BF35C00D44303F0784008230403D36
:1003D8008500013F8A00003F0A0081312000C100EA
:1003E8004108BA0008002000C60042084304031967
:1003F800FE29FF29102A4635203E8600870142083B
:10040800C03F4308C13F4408C50046082C3E86004B
:100418008701450881001D2A4635203E8600870150
:100428002230C03F0430C13F46082C3E8600870179
:1004380081010800F400700871040319242A252A90
:10044800362A7435203E860087017008C03F71083F
:10045800C13F7208F30074082C3E860087017308B8
:100468008100432A7435203E860087012230C03F30
:100478000430C13F74082C3E8600870181010800C2
:10048800E93403348A3403349B340334333400347A
:1004980088340034A334033445340134E434033459
:1004A800DF340334DA340334D5340334D03403343A
:1004B800CB340334C6340334C1340334A034013498
:1004C8002000C300C401C40ABC186B2A6C2A7D2A08
:1004D800BC14C40143080319722A732A762ABA0184
:1004E800BA0A7A2A0230C2004208BA0084310224C9
:1004F80082312000440808002000C301C30ABC1848
:10050800862A872A9A2A3C11FF30C2004208B60080
:1005180084310B24823184310524823184310824CA
:10052800823120003B08C2004208C300430808008B
:1005380083315D2382318B170B1782302000CE0068
:10054800DD30890BA52ACE0BA52A003255302000B4
:10055800CE004E08CB000830813174218231B32A95
:1005680080312528790886008701403FF000413F07
:10057800F1007908023E86008701010883312323B0
:1005880082310030F500F600F70183316A238231A9
:10059800023008000130F0000030F10079088331A2
:1005A800232382310030F500F600F70183316A23F6
:1005B8008231043008000130F0000030F100790881
:1005C8008331232382310030F500F600F7018331AF
:1005D8006A238231043008000230F0000030F10054
:1005E80079088331232382310030F500F600F701C2
:1005F80083316A238231023008000130F000003074
:10060800F10079088331232383310030F500F600A7
:10061800F70183316A238331023008000230F00089
:100628000030F10079088331232383310030F5004D
:10063800F600F70183316A23833104300800F300A0
:100648002000BC1D282B292B322B7308F2007208BE
:10065800B7007108B9007008B800BC110800200084
:100668004808C3004708C2004908CA004A08C4002D
:1006780000308131F7218331080020004808C30089
:100688004708C2004908CA004A08C400023081313C
:10069800F721833108002300901A532B542B5C2B2D
:1006A80080308F0008309000910109308D0090163D
:1006B8000800833193238331833177238331813158
:1006C8001321833183318123833108007608F100B7
:1006D8007508F0007708F8007808F20000308231D9
:1006E8001E2283310800803023008F0008309000DC
:1006F800910109308D0090120800603031008D00A2
:100708008F019101023093009201080020003C14EF
:100718000314360D8331EE238331053008002F0092
:1007280096019701980199019A019B010800200000
:100738003C1436358331EE23833103300800200022
:100748003C10843117248331043008006400800190
:100758000131890BAB2B003420004308BE0042084E
:10076800BD0008002300110E890C890C013908000E
:10077800003082316422833108002000BC10BB01A4
:100788000E3008008331FB238331093008008331A0
:10079800FB2383310A3008008331F7238331053086
:1007A800080084311A2483310030080084311D2464
:1007B80083310130080084311D2483310230080060
:1007C80084311D248331013008002000BC10BB0196
:1007D8000E300800F000700823008C0008008131FA
:1007E800CC21833108002300911211160800230040
:1007F8009116111608002E00191408002300111470
:1008080008002E00191008002300901208002E007E
:100818000F1008002E000F1008002E000F140800FB
:1008280023000C0808002300911508002300111567
:100838000800230091140800053008000130080062
:020000040001F9
:0A000E00EC3FFF3F9F3FFF3FFF3F25
:00000001FF
