:020000040000FA
:0400000080312528FE
:100008007E1480310B1F09280A2823282E00991CEA
:100018000E280F281A288F1C122813281A282000A7
:100028003E088A003D080A0080312328191C1D2833
:100038001E2823280F1C21282228232813287E1055
:1000480009008031272820308400003085001F30C7
:100058008331862380317E1020008231782A8331D3
:1000680092238031003A03193A283B286B28482804
:100078008331BB23803187288331B6238031872899
:100088008331AC238031872820002F08FA007A08B2
:10009800F9000630203E86008701413F8A00403F34
:1000A8000A008031FB00FC017C08003A03195D2836
:1000B80044287B08013A03194428033A03193C28C9
:1000C800013A03194028073A031944284428200014
:1000D8003C101730203E86008701403F8400850190
:1000E800810A00088331C523803101302000B8021D
:1000F8000030B93B38083904031D83288428862832
:1001080006308728033008008331E8238031FA005D
:1001180020003708860087017A0881000130FA003C
:100128007A08B7070130B8020030B93B38083904FB
:1001380003199F28A028A5288331CE2380310530B4
:10014800CD28BC15AF2883319D238031CD2883313C
:10015800A2238031CD282C08FA007A08F90021085A
:100168008A0020080A008031FB00FC017C08003A64
:100178000319BF28AB287B08013A0319AB28033AB7
:100188000319A728013A0319A728073A0319AB2826
:10019800AB2808002000C500C601C60A3C19D528AE
:1001A800D62811294508C4004408B600BC103C15DF
:1001B8003C100E30C4004408BA00F430B4000130DA
:1001C800B500BC15F630A0000330A100AC01F63034
:1001D800A2000330A300AD01F630A4000330A5004F
:1001E800AE01F630A6000330A700AF01F430A80036
:1001F8000330A900B001CA30C2000330C300833104
:100208008C2380318331DF23803183312B2380316C
:100218008331D62380312000C6014608080020001B
:10022800960197019801FD309100FF309200FF3050
:100238009300E7303E00CE00FF30C300FD30B80029
:10024800E501C401B901CF01BA01C501D001FF30F0
:10025800BB00FF30C600FF30D100FF30BC00FF30CC
:10026800C700FF30D2000830E80013303D00C50059
:1002780014303E00A3001530A40014303D00C60021
:1002880008002000BC1555298331B1238131732919
:100298008331E5238131033073298331AC238131E4
:1002A80073292C08FA007A08F90021088A00200826
:1002B8000A008131FB00FC017C08003A031965291A
:1002C80051297B08013A03195129033A031948298E
:1002D800013A03194829073A03194C2951290800FA
:1002E80020003C100230FA007A08BB0083298331D1
:1002F800B12381319F298331AC2381319F292E0875
:10030800FA007A08F9000430203E86008701413F50
:100318008A00403F0A008131FB00FC017C08003A5A
:10032800031997297F297B08023A03197B29013A87
:1003380003197B297F2908008331E22381312000BA
:100348003C1CA729A829B529833192238131003A79
:100358000319AF29B029B5290F302000BF003F0885
:10036800BA0020003A08BF00C001BF35C00D3C30BC
:100378003F0784008230403D8500013F8A00003FEE
:100388000A0081312000C1004108BA00080020009D
:10039800C600420843040319D229D329E429463563
:1003A800203E860087014208C03F4308C13F4408F9
:1003B800C50046082C3E8600870145088100F129C2
:1003C8004635203E86008701F630C03F0330C13FE6
:1003D80046082C3E8600870181010800F400700859
:1003E80071040319F829F9290A2A7435203E860070
:1003F80087017008C03F7108C13F7208F300740894
:100408002C3E8600870173088100172A7435203E28
:1004180086008701F630C03F0330C13F74082C3E88
:1004280086008701810108002000CD0020004D08CA
:100438008031CE208231003A0319232A242A1A2A2D
:10044800AA302000C7000230C8004B30CC004C084E
:10045800C90083310F23823100302000C700C80053
:10046800C90183311D23823182315C228231080027
:10047800C0340334663403347734033433340034FB
:10048800883400347F34033445340134BB340334B6
:10049800B6340334B1340334AC340334A7340334EE
:1004A800A23403349D34033498340334743401344F
:1004B8002000C301C30ABC18622A632A762A3C11A9
:1004C800FF30C2004208B6008331DF238231833116
:1004D800D92382318331DC23823120003B08C200DA
:1004E8004208C300430808008331392382318B173F
:1004F8000B1782302000CE00DD30890B812ACE0B0D
:10050800812A003255302000CE004E08CB0008303A
:100518008231182282318F2A803125287908860075
:100528008701403FF000413FF1007908023E860014
:10053800870101088231FF2282310030F500F60080
:10054800F701833146238231023008000130F00080
:100558000030F10079088231FF2282310030F50045
:10056800F600F70183314623823104300800013058
:10057800F0000030F10079088231FF22823100302A
:10058800F500F600F7018331462382310430080074
:100598000230F0000030F10079088231FF22823108
:1005A8000030F500F600F70183314623823102302E
:1005B80008000130F0000030F10079088231FF2294
:1005C80082310030F500F600F7018331462382318D
:1005D800023008000230F0000030F1007908823162
:1005E800FF2282310030F500F600F70183314623FF
:1005F800823104300800F3002000BC1D042B052BB9
:100608000E2B7308F2007208B7007108B900700861
:10061800B800BC11080020004808C3004708C20001
:100628004908CA004A08C40000308131CB2183310F
:10063800080020004808C3004708C2004908CA004B
:100648004A08C40002308131CB21833108002300DD
:10065800901A2F2B302B382B80308F0008309000C9
:10066800910109308D009016080083316F23833182
:1006780083315323833181311321833183315D23C6
:10068800833108007608F1007508F0007708F80053
:100698007808F20000308131F2218331080080307F
:1006A80023008F0008309000910109308D009012CE
:1006B8000800603031008D008F01910102309300F5
:1006C8009201080020003C140314360D8331C52321
:1006D8008331053008002F00960197019801990190
:1006E8009A019B01080020003C1436358331C5234C
:1006F80083310330080020003C108331EB23833121
:1007080004300800640080010131890B872B003414
:1007180020004308BE004208BD0008002300110E57
:10072800890C890C013908002000BC10BB010E306F
:1007380008008331D2238331093008008331D22362
:1007480083310A3008008331CE2383310530080015
:100758008331EE238331003008008331F123833164
:10076800013008008331F1238331023008008331DE
:10077800F1238331013008002000BC10BB010E308A
:100788000800F000700823008C0008008131A021C7
:1007980083310800230091121116080023009116D6
:1007A800111608002E00191408002E001910080050
:1007B8002300901208002E000F1008002E000F10C2
:1007C80008002E000F14080023000C08080023005E
:1007D8009115080023001115080023009114080042
:0807E800053008000130080093
:020000040001F9
:0A000E00EC3FFF3F9F3FFF3FFF3F25
:00000001FF
